{
  "_format": "hh-sol-artifact-1",
  "contractName": "UserData",
  "sourceName": "contracts/UserData.sol",
  "abi": [
    {
      "anonymous": false,
      "inputs": [
        {
          "indexed": false,
          "internalType": "address",
          "name": "userAddress",
          "type": "address"
        }
      ],
      "name": "UserSignedUp",
      "type": "event"
    },
    {
      "inputs": [
        {
          "internalType": "string",
          "name": "_username",
          "type": "string"
        },
        {
          "internalType": "string",
          "name": "_password",
          "type": "string"
        },
        {
          "internalType": "uint256",
          "name": "_cardId",
          "type": "uint256"
        }
      ],
      "name": "authenticate",
      "outputs": [
        {
          "internalType": "bool",
          "name": "",
          "type": "bool"
        }
      ],
      "stateMutability": "view",
      "type": "function"
    },
    {
      "inputs": [
        {
          "internalType": "string",
          "name": "_username",
          "type": "string"
        },
        {
          "internalType": "string",
          "name": "_password",
          "type": "string"
        },
        {
          "internalType": "uint256",
          "name": "_cardId",
          "type": "uint256"
        }
      ],
      "name": "signUp",
      "outputs": [],
      "stateMutability": "nonpayable",
      "type": "function"
    },
    {
      "inputs": [
        {
          "internalType": "address",
          "name": "",
          "type": "address"
        }
      ],
      "name": "users",
      "outputs": [
        {
          "internalType": "string",
          "name": "username",
          "type": "string"
        },
        {
          "internalType": "bytes32",
          "name": "passwordHash",
          "type": "bytes32"
        },
        {
          "internalType": "uint256",
          "name": "cardId",
          "type": "uint256"
        }
      ],
      "stateMutability": "view",
      "type": "function"
    }
  ],
  "bytecode": "0x608060405234801561001057600080fd5b50610af1806100206000396000f3fe608060405234801561001057600080fd5b50600436106100415760003560e01c80632c1b31bc1461004657806393879e7814610062578063a87430ba14610092575b600080fd5b610060600480360381019061005b91906106fb565b6100c4565b005b61007c600480360381019061007791906106fb565b610249565b60405161008991906107a1565b60405180910390f35b6100ac60048036038101906100a7919061081a565b610416565b6040516100bb939291906108f7565b60405180910390f35b60008060003373ffffffffffffffffffffffffffffffffffffffff1673ffffffffffffffffffffffffffffffffffffffff168152602001908152602001600020600001805461011290610964565b905014610154576040517f08c379a000000000000000000000000000000000000000000000000000000000815260040161014b906109e2565b60405180910390fd5b6000826040516020016101679190610a3e565b6040516020818303038152906040528051906020012090506040518060600160405280858152602001828152602001838152506000803373ffffffffffffffffffffffffffffffffffffffff1673ffffffffffffffffffffffffffffffffffffffff16815260200190815260200160002060008201518160000190805190602001906101f49291906104c8565b5060208201518160010155604082015181600201559050507f1075863f455b1ed07c8c394d3a38d3d228f2504ad3255236c4c28ee11b3060613360405161023b9190610a64565b60405180910390a150505050565b6000806000803373ffffffffffffffffffffffffffffffffffffffff1673ffffffffffffffffffffffffffffffffffffffff1681526020019081526020016000206040518060600160405290816000820180546102a590610964565b80601f01602080910402602001604051908101604052809291908181526020018280546102d190610964565b801561031e5780601f106102f35761010080835404028352916020019161031e565b820191906000526020600020905b81548152906001019060200180831161030157829003601f168201915b505050505081526020016001820154815260200160028201548152505090508460405160200161034e9190610a3e565b6040516020818303038152906040528051906020012081600001516040516020016103799190610a3e565b604051602081830303815290604052805190602001201480156103eb5750836040516020016103a89190610a3e565b6040516020818303038152906040528051906020012081602001516040516020016103d39190610aa0565b60405160208183030381529060405280519060200120145b80156103fa5750828160400151145b1561040957600191505061040f565b60009150505b9392505050565b600060205280600052604060002060009150905080600001805461043990610964565b80601f016020809104026020016040519081016040528092919081815260200182805461046590610964565b80156104b25780601f10610487576101008083540402835291602001916104b2565b820191906000526020600020905b81548152906001019060200180831161049557829003601f168201915b5050505050908060010154908060020154905083565b8280546104d490610964565b90600052602060002090601f0160209004810192826104f6576000855561053d565b82601f1061050f57805160ff191683800117855561053d565b8280016001018555821561053d579182015b8281111561053c578251825591602001919060010190610521565b5b50905061054a919061054e565b5090565b5b8082111561056757600081600090555060010161054f565b5090565b6000604051905090565b600080fd5b600080fd5b600080fd5b600080fd5b6000601f19601f8301169050919050565b7f4e487b7100000000000000000000000000000000000000000000000000000000600052604160045260246000fd5b6105d282610589565b810181811067ffffffffffffffff821117156105f1576105f061059a565b5b80604052505050565b600061060461056b565b905061061082826105c9565b919050565b600067ffffffffffffffff8211156106305761062f61059a565b5b61063982610589565b9050602081019050919050565b82818337600083830152505050565b600061066861066384610615565b6105fa565b90508281526020810184848401111561068457610683610584565b5b61068f848285610646565b509392505050565b600082601f8301126106ac576106ab61057f565b5b81356106bc848260208601610655565b91505092915050565b6000819050919050565b6106d8816106c5565b81146106e357600080fd5b50565b6000813590506106f5816106cf565b92915050565b60008060006060848603121561071457610713610575565b5b600084013567ffffffffffffffff8111156107325761073161057a565b5b61073e86828701610697565b935050602084013567ffffffffffffffff81111561075f5761075e61057a565b5b61076b86828701610697565b925050604061077c868287016106e6565b9150509250925092565b60008115159050919050565b61079b81610786565b82525050565b60006020820190506107b66000830184610792565b92915050565b600073ffffffffffffffffffffffffffffffffffffffff82169050919050565b60006107e7826107bc565b9050919050565b6107f7816107dc565b811461080257600080fd5b50565b600081359050610814816107ee565b92915050565b6000602082840312156108305761082f610575565b5b600061083e84828501610805565b91505092915050565b600081519050919050565b600082825260208201905092915050565b60005b83811015610881578082015181840152602081019050610866565b83811115610890576000848401525b50505050565b60006108a182610847565b6108ab8185610852565b93506108bb818560208601610863565b6108c481610589565b840191505092915050565b6000819050919050565b6108e2816108cf565b82525050565b6108f1816106c5565b82525050565b600060608201905081810360008301526109118186610896565b905061092060208301856108d9565b61092d60408301846108e8565b949350505050565b7f4e487b7100000000000000000000000000000000000000000000000000000000600052602260045260246000fd5b6000600282049050600182168061097c57607f821691505b602082108114156109905761098f610935565b5b50919050565b7f5573657220616c7265616479207369676e656420757000000000000000000000600082015250565b60006109cc601683610852565b91506109d782610996565b602082019050919050565b600060208201905081810360008301526109fb816109bf565b9050919050565b600081905092915050565b6000610a1882610847565b610a228185610a02565b9350610a32818560208601610863565b80840191505092915050565b6000610a4a8284610a0d565b915081905092915050565b610a5e816107dc565b82525050565b6000602082019050610a796000830184610a55565b92915050565b6000819050919050565b610a9a610a95826108cf565b610a7f565b82525050565b6000610aac8284610a89565b6020820191508190509291505056fea2646970667358221220669b29605576ef6cec15a1b2699c533a6af20231607be4a618c464b74e55741164736f6c634300080b0033",
  "linkReferences": {},
  "deployedLinkReferences": {}
}